{
  "abi": [
    {
      "inputs": [
        {
          "internalType": "contract IERC20",
          "name": "newToken",
          "type": "address"
        },
        {
          "internalType": "address",
          "name": "owner",
          "type": "address"
        }
      ],
      "stateMutability": "nonpayable",
      "type": "constructor"
    },
    {
      "inputs": [],
      "name": "BadGaugeId",
      "type": "error"
    },
    {
      "inputs": [],
      "name": "EmptyCount",
      "type": "error"
    },
    {
      "anonymous": false,
      "inputs": [
        {
          "indexed": true,
          "internalType": "uint256",
          "name": "gaugeId",
          "type": "uint256"
        },
        {
          "indexed": true,
          "internalType": "uint256",
          "name": "convictionId",
          "type": "uint256"
        },
        {
          "indexed": true,
          "internalType": "address",
          "name": "user",
          "type": "address"
        },
        {
          "indexed": false,
          "internalType": "uint256",
          "name": "amount",
          "type": "uint256"
        }
      ],
      "name": "AddConviction",
      "type": "event"
    },
    {
      "anonymous": false,
      "inputs": [
        {
          "indexed": true,
          "internalType": "uint256",
          "name": "id",
          "type": "uint256"
        }
      ],
      "name": "NewGauge",
      "type": "event"
    },
    {
      "anonymous": false,
      "inputs": [
        {
          "indexed": true,
          "internalType": "address",
          "name": "previousOwner",
          "type": "address"
        },
        {
          "indexed": true,
          "internalType": "address",
          "name": "newOwner",
          "type": "address"
        }
      ],
      "name": "OwnershipTransferred",
      "type": "event"
    },
    {
      "anonymous": false,
      "inputs": [
        {
          "indexed": true,
          "internalType": "uint256",
          "name": "gaugeId",
          "type": "uint256"
        },
        {
          "indexed": true,
          "internalType": "uint256",
          "name": "convictionId",
          "type": "uint256"
        },
        {
          "indexed": true,
          "internalType": "address",
          "name": "user",
          "type": "address"
        },
        {
          "indexed": false,
          "internalType": "uint256",
          "name": "amount",
          "type": "uint256"
        }
      ],
      "name": "RemoveConviction",
      "type": "event"
    },
    {
      "anonymous": false,
      "inputs": [
        {
          "indexed": true,
          "internalType": "uint256",
          "name": "gaugeId",
          "type": "uint256"
        },
        {
          "indexed": true,
          "internalType": "address",
          "name": "user",
          "type": "address"
        },
        {
          "indexed": true,
          "internalType": "uint256",
          "name": "amount",
          "type": "uint256"
        }
      ],
      "name": "RemoveConviction",
      "type": "event"
    },
    {
      "inputs": [
        {
          "internalType": "address",
          "name": "user",
          "type": "address"
        },
        {
          "internalType": "uint256",
          "name": "gaugeId",
          "type": "uint256"
        },
        {
          "internalType": "uint256",
          "name": "amount",
          "type": "uint256"
        }
      ],
      "name": "addConviction",
      "outputs": [],
      "stateMutability": "nonpayable",
      "type": "function"
    },
    {
      "inputs": [],
      "name": "addGauge",
      "outputs": [],
      "stateMutability": "nonpayable",
      "type": "function"
    },
    {
      "inputs": [
        {
          "internalType": "uint256",
          "name": "",
          "type": "uint256"
        }
      ],
      "name": "gauges",
      "outputs": [
        {
          "internalType": "uint256",
          "name": "id",
          "type": "uint256"
        },
        {
          "internalType": "uint256",
          "name": "currentConvictionId",
          "type": "uint256"
        }
      ],
      "stateMutability": "view",
      "type": "function"
    },
    {
      "inputs": [
        {
          "internalType": "uint256",
          "name": "gaugeId",
          "type": "uint256"
        },
        {
          "internalType": "address",
          "name": "user",
          "type": "address"
        }
      ],
      "name": "getIntFromMappingForConvictionsByUser",
      "outputs": [
        {
          "internalType": "uint256[]",
          "name": "",
          "type": "uint256[]"
        }
      ],
      "stateMutability": "view",
      "type": "function"
    },
    {
      "inputs": [
        {
          "internalType": "uint256",
          "name": "gaugeId",
          "type": "uint256"
        }
      ],
      "name": "getIntFromMappingForTotalConviction",
      "outputs": [
        {
          "internalType": "address",
          "name": "",
          "type": "address"
        },
        {
          "internalType": "uint256",
          "name": "",
          "type": "uint256"
        },
        {
          "internalType": "uint256",
          "name": "",
          "type": "uint256"
        }
      ],
      "stateMutability": "view",
      "type": "function"
    },
    {
      "inputs": [
        {
          "internalType": "uint256",
          "name": "amount",
          "type": "uint256"
        },
        {
          "internalType": "uint256",
          "name": "timestamp",
          "type": "uint256"
        }
      ],
      "name": "getScoreWeight",
      "outputs": [
        {
          "internalType": "uint256",
          "name": "score",
          "type": "uint256"
        }
      ],
      "stateMutability": "pure",
      "type": "function"
    },
    {
      "inputs": [],
      "name": "owner",
      "outputs": [
        {
          "internalType": "address",
          "name": "",
          "type": "address"
        }
      ],
      "stateMutability": "view",
      "type": "function"
    },
    {
      "inputs": [
        {
          "internalType": "uint256",
          "name": "gaugeId",
          "type": "uint256"
        },
        {
          "internalType": "uint256",
          "name": "count",
          "type": "uint256"
        },
        {
          "internalType": "bool",
          "name": "oldestFirst",
          "type": "bool"
        },
        {
          "internalType": "uint256[]",
          "name": "convictions",
          "type": "uint256[]"
        }
      ],
      "name": "removeConvictionByIds",
      "outputs": [],
      "stateMutability": "nonpayable",
      "type": "function"
    },
    {
      "inputs": [],
      "name": "renounceOwnership",
      "outputs": [],
      "stateMutability": "nonpayable",
      "type": "function"
    },
    {
      "inputs": [
        {
          "internalType": "address",
          "name": "",
          "type": "address"
        }
      ],
      "name": "scores",
      "outputs": [
        {
          "internalType": "uint256",
          "name": "",
          "type": "uint256"
        }
      ],
      "stateMutability": "view",
      "type": "function"
    },
    {
      "inputs": [
        {
          "internalType": "address",
          "name": "newOwner",
          "type": "address"
        }
      ],
      "name": "transferOwnership",
      "outputs": [],
      "stateMutability": "nonpayable",
      "type": "function"
    }
  ],
  "bytecode": {
    "object": "0x608060405234801561001057600080fd5b5060405161105538038061105583398101604081905261002f916100cb565b61003833610063565b600480546001600160a01b0319166001600160a01b03841617905561005c81610063565b5050610105565b600080546001600160a01b038381166001600160a01b0319831681178455604051919092169283917f8be0079c531659141344cd1fd0a4f28419497f9722a3daafe3b4186f6b6457e09190a35050565b6001600160a01b03811681146100c857600080fd5b50565b600080604083850312156100de57600080fd5b82516100e9816100b3565b60208401519092506100fa816100b3565b809150509250929050565b610f41806101146000396000f3fe608060405234801561001057600080fd5b50600436106100a95760003560e01c806388423d631161007157806388423d63146101385780638da5cb5b14610140578063a271a8d31461015b578063b0539187146101c4578063eb17ec8d14610200578063f2fde38b1461021357600080fd5b806307819d9f146100ae5780633304b1e5146100c357806346fc553b146100ec578063715018a61461011057806376dd110f14610118575b600080fd5b6100c16100bc366004610be5565b610226565b005b6100d66100d1366004610c18565b61032b565b6040516100e39190610c44565b60405180910390f35b6101026100fa366004610c88565b600092915050565b6040519081526020016100e3565b6100c16103a4565b610102610126366004610caa565b60036020526000908152604090205481565b6100c16103e3565b6000546040516001600160a01b0390911681526020016100e3565b61019f610169366004610cc5565b600081815260026020818152604080842083019091529091208054600182015491909201546001600160a01b0390921693909250565b604080516001600160a01b0390941684526020840192909252908201526060016100e3565b6101eb6101d2366004610cc5565b6002602052600090815260409020805460019091015482565b604080519283526020830191909152016100e3565b6100c161020e366004610cec565b610464565b6100c1610221366004610caa565b610783565b600082815260026020526040902080541561025457604051636969f78b60e01b815260040160405180910390fd5b6001810180546000918261026783610d9b565b90915550600081815260028481016020908152604080842080546001600160a01b0319166001600160a01b038c8116918217835560018084018c9055429684019690965590865260038901845291852080549485018155855291909320909101839055600454929350916102de911687308761081e565b856001600160a01b031682867ffe4a88e3aaf26f4c673fdd6bb22d91e3226fa37924296e3ddf4b0d68e6e667c98760405161031b91815260200190565b60405180910390a4505050505050565b60008281526002602090815260408083206001600160a01b03851684526003810183529281902080548251818502810185019093528083526060949383018282801561039657602002820191906000526020600020905b815481526020019060010190808311610382575b505050505091505092915050565b6000546001600160a01b031633146103d75760405162461bcd60e51b81526004016103ce90610db4565b60405180910390fd5b6103e1600061088f565b565b6000546001600160a01b0316331461040d5760405162461bcd60e51b81526004016103ce90610db4565b600060016000815461041e90610d9b565b918290555060008181526002602052604080822083815590519293509183917f1778b97911788836684dc1215b28347933e2f34bf6cc18f376f1ced95e4e24ad91a25050565b600085815260026020526040902080541561049257604051636969f78b60e01b815260040160405180910390fd5b84156104b15760405163ec52921760e01b815260040160405180910390fd5b600084156106055760005b8681116105d557336002840160008787858181106104dc576104dc610de9565b60209081029290920135835250810191909152604001600020546001600160a01b0316146105395760405162461bcd60e51b815260206004820152600a60248201526927a7262cafab27aa22a960b11b60448201526064016103ce565b82600201600086868481811061055157610551610de9565b90506020020135815260200190815260200160002060010154826105759190610dff565b915082600201600086868481811061058f5761058f610de9565b60209081029290920135835250810191909152604001600090812080546001600160a01b03191681556001810182905560020155806105cd81610d9b565b9150506104bc565b506105e38660008587610e17565b33600090815260038501602052604090206105ff929091610b69565b50610763565b6000610612600185610e45565b90505b61061f8785610e45565b8110610737573360028401600087878581811061063e5761063e610de9565b60209081029290920135835250810191909152604001600020546001600160a01b03161461069b5760405162461bcd60e51b815260206004820152600a60248201526927a7262cafab27aa22a960b11b60448201526064016103ce565b8260020160008686848181106106b3576106b3610de9565b90506020020135815260200190815260200160002060010154826106d79190610dff565b91508260020160008686848181106106f1576106f1610de9565b60209081029290920135835250810191909152604001600090812080546001600160a01b031916815560018101829055600201558061072f81610e5c565b915050610615565b506107458660008587610e17565b3360009081526003850160205260409020610761929091610b69565b505b61077a336004546001600160a01b031690836108df565b50505050505050565b6000546001600160a01b031633146107ad5760405162461bcd60e51b81526004016103ce90610db4565b6001600160a01b0381166108125760405162461bcd60e51b815260206004820152602660248201527f4f776e61626c653a206e6577206f776e657220697320746865207a65726f206160448201526564647265737360d01b60648201526084016103ce565b61081b8161088f565b50565b6040516001600160a01b03808516602483015283166044820152606481018290526108899085906323b872dd60e01b906084015b60408051601f198184030181529190526020810180516001600160e01b03166001600160e01b031990931692909217909152610914565b50505050565b600080546001600160a01b038381166001600160a01b0319831681178455604051919092169283917f8be0079c531659141344cd1fd0a4f28419497f9722a3daafe3b4186f6b6457e09190a35050565b6040516001600160a01b03831660248201526044810182905261090f90849063a9059cbb60e01b90606401610852565b505050565b6000610969826040518060400160405280602081526020017f5361666545524332303a206c6f772d6c6576656c2063616c6c206661696c6564815250856001600160a01b03166109e69092919063ffffffff16565b80519091501561090f57808060200190518101906109879190610e73565b61090f5760405162461bcd60e51b815260206004820152602a60248201527f5361666545524332303a204552433230206f7065726174696f6e20646964206e6044820152691bdd081cdd58d8d9595960b21b60648201526084016103ce565b60606109f584846000856109ff565b90505b9392505050565b606082471015610a605760405162461bcd60e51b815260206004820152602660248201527f416464726573733a20696e73756666696369656e742062616c616e636520666f6044820152651c8818d85b1b60d21b60648201526084016103ce565b6001600160a01b0385163b610ab75760405162461bcd60e51b815260206004820152601d60248201527f416464726573733a2063616c6c20746f206e6f6e2d636f6e747261637400000060448201526064016103ce565b600080866001600160a01b03168587604051610ad39190610ebc565b60006040518083038185875af1925050503d8060008114610b10576040519150601f19603f3d011682016040523d82523d6000602084013e610b15565b606091505b5091509150610b25828286610b30565b979650505050505050565b60608315610b3f5750816109f8565b825115610b4f5782518084602001fd5b8160405162461bcd60e51b81526004016103ce9190610ed8565b828054828255906000526020600020908101928215610ba4579160200282015b82811115610ba4578235825591602001919060010190610b89565b50610bb0929150610bb4565b5090565b5b80821115610bb05760008155600101610bb5565b80356001600160a01b0381168114610be057600080fd5b919050565b600080600060608486031215610bfa57600080fd5b610c0384610bc9565b95602085013595506040909401359392505050565b60008060408385031215610c2b57600080fd5b82359150610c3b60208401610bc9565b90509250929050565b6020808252825182820181905260009190848201906040850190845b81811015610c7c57835183529284019291840191600101610c60565b50909695505050505050565b60008060408385031215610c9b57600080fd5b50508035926020909101359150565b600060208284031215610cbc57600080fd5b6109f882610bc9565b600060208284031215610cd757600080fd5b5035919050565b801515811461081b57600080fd5b600080600080600060808688031215610d0457600080fd5b85359450602086013593506040860135610d1d81610cde565b9250606086013567ffffffffffffffff80821115610d3a57600080fd5b818801915088601f830112610d4e57600080fd5b813581811115610d5d57600080fd5b8960208260051b8501011115610d7257600080fd5b9699959850939650602001949392505050565b634e487b7160e01b600052601160045260246000fd5b600060018201610dad57610dad610d85565b5060010190565b6020808252818101527f4f776e61626c653a2063616c6c6572206973206e6f7420746865206f776e6572604082015260600190565b634e487b7160e01b600052603260045260246000fd5b60008219821115610e1257610e12610d85565b500190565b60008085851115610e2757600080fd5b83861115610e3457600080fd5b5050600583901b0193919092039150565b600082821015610e5757610e57610d85565b500390565b600081610e6b57610e6b610d85565b506000190190565b600060208284031215610e8557600080fd5b81516109f881610cde565b60005b83811015610eab578181015183820152602001610e93565b838111156108895750506000910152565b60008251610ece818460208701610e90565b9190910192915050565b6020815260008251806020840152610ef7816040850160208701610e90565b601f01601f1916919091016040019291505056fea2646970667358221220340b0e4d36c3fdeaa8f244693038e90a1f8224ad71ec67130a6912f85b73e48d64736f6c634300080d0033",
    "linkReferences": {}
  }
}