{
  "abi": [
    {
      "inputs": [
        {
          "internalType": "contract IERC20",
          "name": "newToken",
          "type": "address"
        },
        {
          "internalType": "address",
          "name": "owner",
          "type": "address"
        }
      ],
      "stateMutability": "nonpayable",
      "type": "constructor"
    },
    {
      "inputs": [],
      "name": "BadGaugeId",
      "type": "error"
    },
    {
      "inputs": [],
      "name": "EmptyCount",
      "type": "error"
    },
    {
      "anonymous": false,
      "inputs": [
        {
          "indexed": true,
          "internalType": "uint256",
          "name": "gaugeId",
          "type": "uint256"
        },
        {
          "indexed": true,
          "internalType": "uint256",
          "name": "convictionId",
          "type": "uint256"
        },
        {
          "indexed": true,
          "internalType": "address",
          "name": "user",
          "type": "address"
        },
        {
          "indexed": false,
          "internalType": "uint256",
          "name": "amount",
          "type": "uint256"
        }
      ],
      "name": "AddConviction",
      "type": "event"
    },
    {
      "anonymous": false,
      "inputs": [
        {
          "indexed": true,
          "internalType": "uint256",
          "name": "id",
          "type": "uint256"
        }
      ],
      "name": "NewGauge",
      "type": "event"
    },
    {
      "anonymous": false,
      "inputs": [
        {
          "indexed": true,
          "internalType": "address",
          "name": "previousOwner",
          "type": "address"
        },
        {
          "indexed": true,
          "internalType": "address",
          "name": "newOwner",
          "type": "address"
        }
      ],
      "name": "OwnershipTransferred",
      "type": "event"
    },
    {
      "anonymous": false,
      "inputs": [
        {
          "indexed": true,
          "internalType": "uint256",
          "name": "gaugeId",
          "type": "uint256"
        },
        {
          "indexed": true,
          "internalType": "uint256",
          "name": "convictionId",
          "type": "uint256"
        },
        {
          "indexed": true,
          "internalType": "address",
          "name": "user",
          "type": "address"
        },
        {
          "indexed": false,
          "internalType": "uint256",
          "name": "amount",
          "type": "uint256"
        }
      ],
      "name": "RemoveConviction",
      "type": "event"
    },
    {
      "anonymous": false,
      "inputs": [
        {
          "indexed": true,
          "internalType": "uint256",
          "name": "gaugeId",
          "type": "uint256"
        },
        {
          "indexed": true,
          "internalType": "address",
          "name": "user",
          "type": "address"
        },
        {
          "indexed": true,
          "internalType": "uint256",
          "name": "amount",
          "type": "uint256"
        }
      ],
      "name": "RemoveConviction",
      "type": "event"
    },
    {
      "inputs": [
        {
          "internalType": "address",
          "name": "user",
          "type": "address"
        },
        {
          "internalType": "uint256",
          "name": "gaugeId",
          "type": "uint256"
        },
        {
          "internalType": "uint256",
          "name": "amount",
          "type": "uint256"
        }
      ],
      "name": "addConviction",
      "outputs": [],
      "stateMutability": "nonpayable",
      "type": "function"
    },
    {
      "inputs": [],
      "name": "addGauge",
      "outputs": [],
      "stateMutability": "nonpayable",
      "type": "function"
    },
    {
      "inputs": [
        {
          "internalType": "uint256",
          "name": "",
          "type": "uint256"
        }
      ],
      "name": "gauges",
      "outputs": [
        {
          "internalType": "uint256",
          "name": "id",
          "type": "uint256"
        },
        {
          "internalType": "uint256",
          "name": "currentConvictionId",
          "type": "uint256"
        }
      ],
      "stateMutability": "view",
      "type": "function"
    },
    {
      "inputs": [
        {
          "internalType": "uint256",
          "name": "gaugeId",
          "type": "uint256"
        },
        {
          "internalType": "address",
          "name": "user",
          "type": "address"
        }
      ],
      "name": "getIntArrayFromMappingForConvictionsByUser",
      "outputs": [
        {
          "internalType": "uint256[]",
          "name": "",
          "type": "uint256[]"
        }
      ],
      "stateMutability": "view",
      "type": "function"
    },
    {
      "inputs": [
        {
          "internalType": "uint256",
          "name": "gaugeId",
          "type": "uint256"
        }
      ],
      "name": "getIntFromMappingForTotalConvictionForGauge",
      "outputs": [
        {
          "internalType": "uint256",
          "name": "",
          "type": "uint256"
        }
      ],
      "stateMutability": "view",
      "type": "function"
    },
    {
      "inputs": [
        {
          "internalType": "uint256",
          "name": "amount",
          "type": "uint256"
        },
        {
          "internalType": "uint256",
          "name": "timestamp",
          "type": "uint256"
        }
      ],
      "name": "getScoreWeight",
      "outputs": [
        {
          "internalType": "uint256",
          "name": "score",
          "type": "uint256"
        }
      ],
      "stateMutability": "pure",
      "type": "function"
    },
    {
      "inputs": [],
      "name": "owner",
      "outputs": [
        {
          "internalType": "address",
          "name": "",
          "type": "address"
        }
      ],
      "stateMutability": "view",
      "type": "function"
    },
    {
      "inputs": [
        {
          "internalType": "uint256",
          "name": "gaugeId",
          "type": "uint256"
        },
        {
          "internalType": "uint256",
          "name": "count",
          "type": "uint256"
        },
        {
          "internalType": "bool",
          "name": "oldestFirst",
          "type": "bool"
        },
        {
          "internalType": "uint256[]",
          "name": "convictions",
          "type": "uint256[]"
        }
      ],
      "name": "removeConvictionByIds",
      "outputs": [],
      "stateMutability": "nonpayable",
      "type": "function"
    },
    {
      "inputs": [],
      "name": "renounceOwnership",
      "outputs": [],
      "stateMutability": "nonpayable",
      "type": "function"
    },
    {
      "inputs": [
        {
          "internalType": "address",
          "name": "",
          "type": "address"
        }
      ],
      "name": "scores",
      "outputs": [
        {
          "internalType": "uint256",
          "name": "",
          "type": "uint256"
        }
      ],
      "stateMutability": "view",
      "type": "function"
    },
    {
      "inputs": [
        {
          "internalType": "address",
          "name": "newOwner",
          "type": "address"
        }
      ],
      "name": "transferOwnership",
      "outputs": [],
      "stateMutability": "nonpayable",
      "type": "function"
    }
  ],
  "bytecode": {
    "object": "0x608060405234801561001057600080fd5b5060405161100e38038061100e83398101604081905261002f916100cb565b61003833610063565b600480546001600160a01b0319166001600160a01b03841617905561005c81610063565b5050610105565b600080546001600160a01b038381166001600160a01b0319831681178455604051919092169283917f8be0079c531659141344cd1fd0a4f28419497f9722a3daafe3b4186f6b6457e09190a35050565b6001600160a01b03811681146100c857600080fd5b50565b600080604083850312156100de57600080fd5b82516100e9816100b3565b60208401519092506100fa816100b3565b809150509250929050565b610efa806101146000396000f3fe608060405234801561001057600080fd5b50600436106100a95760003560e01c80637f85c4e2116100715780637f85c4e21461013a57806388423d631461015a5780638da5cb5b14610162578063b05391871461017d578063eb17ec8d146101b9578063f2fde38b146101cc57600080fd5b806307819d9f146100ae57806346fc553b146100c357806350ed6fea146100ec578063715018a61461011257806376dd110f1461011a575b600080fd5b6100c16100bc366004610b9e565b6101df565b005b6100d96100d1366004610bd1565b600092915050565b6040519081526020015b60405180910390f35b6100d96100fa366004610bf3565b60009081526002602081815260408320909101905290565b6100c16102e4565b6100d9610128366004610c0c565b60036020526000908152604090205481565b61014d610148366004610c27565b610323565b6040516100e39190610c53565b6100c161039c565b6000546040516001600160a01b0390911681526020016100e3565b6101a461018b366004610bf3565b6002602052600090815260409020805460019091015482565b604080519283526020830191909152016100e3565b6100c16101c7366004610ca5565b61041d565b6100c16101da366004610c0c565b61073c565b600082815260026020526040902080541561020d57604051636969f78b60e01b815260040160405180910390fd5b6001810180546000918261022083610d54565b90915550600081815260028481016020908152604080842080546001600160a01b0319166001600160a01b038c8116918217835560018084018c90554296840196909655908652600389018452918520805494850181558552919093209091018390556004549293509161029791168730876107d7565b856001600160a01b031682867ffe4a88e3aaf26f4c673fdd6bb22d91e3226fa37924296e3ddf4b0d68e6e667c9876040516102d491815260200190565b60405180910390a4505050505050565b6000546001600160a01b031633146103175760405162461bcd60e51b815260040161030e90610d6d565b60405180910390fd5b6103216000610848565b565b60008281526002602090815260408083206001600160a01b03851684526003810183529281902080548251818502810185019093528083526060949383018282801561038e57602002820191906000526020600020905b81548152602001906001019080831161037a575b505050505091505092915050565b6000546001600160a01b031633146103c65760405162461bcd60e51b815260040161030e90610d6d565b60006001600081546103d790610d54565b918290555060008181526002602052604080822083815590519293509183917f1778b97911788836684dc1215b28347933e2f34bf6cc18f376f1ced95e4e24ad91a25050565b600085815260026020526040902080541561044b57604051636969f78b60e01b815260040160405180910390fd5b841561046a5760405163ec52921760e01b815260040160405180910390fd5b600084156105be5760005b86811161058e573360028401600087878581811061049557610495610da2565b60209081029290920135835250810191909152604001600020546001600160a01b0316146104f25760405162461bcd60e51b815260206004820152600a60248201526927a7262cafab27aa22a960b11b604482015260640161030e565b82600201600086868481811061050a5761050a610da2565b905060200201358152602001908152602001600020600101548261052e9190610db8565b915082600201600086868481811061054857610548610da2565b60209081029290920135835250810191909152604001600090812080546001600160a01b031916815560018101829055600201558061058681610d54565b915050610475565b5061059c8660008587610dd0565b33600090815260038501602052604090206105b8929091610b22565b5061071c565b60006105cb600185610dfe565b90505b6105d88785610dfe565b81106106f057336002840160008787858181106105f7576105f7610da2565b60209081029290920135835250810191909152604001600020546001600160a01b0316146106545760405162461bcd60e51b815260206004820152600a60248201526927a7262cafab27aa22a960b11b604482015260640161030e565b82600201600086868481811061066c5761066c610da2565b90506020020135815260200190815260200160002060010154826106909190610db8565b91508260020160008686848181106106aa576106aa610da2565b60209081029290920135835250810191909152604001600090812080546001600160a01b03191681556001810182905560020155806106e881610e15565b9150506105ce565b506106fe8660008587610dd0565b336000908152600385016020526040902061071a929091610b22565b505b610733336004546001600160a01b03169083610898565b50505050505050565b6000546001600160a01b031633146107665760405162461bcd60e51b815260040161030e90610d6d565b6001600160a01b0381166107cb5760405162461bcd60e51b815260206004820152602660248201527f4f776e61626c653a206e6577206f776e657220697320746865207a65726f206160448201526564647265737360d01b606482015260840161030e565b6107d481610848565b50565b6040516001600160a01b03808516602483015283166044820152606481018290526108429085906323b872dd60e01b906084015b60408051601f198184030181529190526020810180516001600160e01b03166001600160e01b0319909316929092179091526108cd565b50505050565b600080546001600160a01b038381166001600160a01b0319831681178455604051919092169283917f8be0079c531659141344cd1fd0a4f28419497f9722a3daafe3b4186f6b6457e09190a35050565b6040516001600160a01b0383166024820152604481018290526108c890849063a9059cbb60e01b9060640161080b565b505050565b6000610922826040518060400160405280602081526020017f5361666545524332303a206c6f772d6c6576656c2063616c6c206661696c6564815250856001600160a01b031661099f9092919063ffffffff16565b8051909150156108c857808060200190518101906109409190610e2c565b6108c85760405162461bcd60e51b815260206004820152602a60248201527f5361666545524332303a204552433230206f7065726174696f6e20646964206e6044820152691bdd081cdd58d8d9595960b21b606482015260840161030e565b60606109ae84846000856109b8565b90505b9392505050565b606082471015610a195760405162461bcd60e51b815260206004820152602660248201527f416464726573733a20696e73756666696369656e742062616c616e636520666f6044820152651c8818d85b1b60d21b606482015260840161030e565b6001600160a01b0385163b610a705760405162461bcd60e51b815260206004820152601d60248201527f416464726573733a2063616c6c20746f206e6f6e2d636f6e7472616374000000604482015260640161030e565b600080866001600160a01b03168587604051610a8c9190610e75565b60006040518083038185875af1925050503d8060008114610ac9576040519150601f19603f3d011682016040523d82523d6000602084013e610ace565b606091505b5091509150610ade828286610ae9565b979650505050505050565b60608315610af85750816109b1565b825115610b085782518084602001fd5b8160405162461bcd60e51b815260040161030e9190610e91565b828054828255906000526020600020908101928215610b5d579160200282015b82811115610b5d578235825591602001919060010190610b42565b50610b69929150610b6d565b5090565b5b80821115610b695760008155600101610b6e565b80356001600160a01b0381168114610b9957600080fd5b919050565b600080600060608486031215610bb357600080fd5b610bbc84610b82565b95602085013595506040909401359392505050565b60008060408385031215610be457600080fd5b50508035926020909101359150565b600060208284031215610c0557600080fd5b5035919050565b600060208284031215610c1e57600080fd5b6109b182610b82565b60008060408385031215610c3a57600080fd5b82359150610c4a60208401610b82565b90509250929050565b6020808252825182820181905260009190848201906040850190845b81811015610c8b57835183529284019291840191600101610c6f565b50909695505050505050565b80151581146107d457600080fd5b600080600080600060808688031215610cbd57600080fd5b85359450602086013593506040860135610cd681610c97565b9250606086013567ffffffffffffffff80821115610cf357600080fd5b818801915088601f830112610d0757600080fd5b813581811115610d1657600080fd5b8960208260051b8501011115610d2b57600080fd5b9699959850939650602001949392505050565b634e487b7160e01b600052601160045260246000fd5b600060018201610d6657610d66610d3e565b5060010190565b6020808252818101527f4f776e61626c653a2063616c6c6572206973206e6f7420746865206f776e6572604082015260600190565b634e487b7160e01b600052603260045260246000fd5b60008219821115610dcb57610dcb610d3e565b500190565b60008085851115610de057600080fd5b83861115610ded57600080fd5b5050600583901b0193919092039150565b600082821015610e1057610e10610d3e565b500390565b600081610e2457610e24610d3e565b506000190190565b600060208284031215610e3e57600080fd5b81516109b181610c97565b60005b83811015610e64578181015183820152602001610e4c565b838111156108425750506000910152565b60008251610e87818460208701610e49565b9190910192915050565b6020815260008251806020840152610eb0816040850160208701610e49565b601f01601f1916919091016040019291505056fea2646970667358221220cc25b8c78a98c150fc4d46f340e5aa91b8619ac5c90377812e691cacd9db23e464736f6c634300080d0033",
    "linkReferences": {}
  }
}