{
  "abi": [
    {
      "inputs": [
        {
          "internalType": "uint256",
          "name": "x",
          "type": "uint256"
        }
      ],
      "name": "sqrtu",
      "outputs": [
        {
          "internalType": "uint128",
          "name": "",
          "type": "uint128"
        }
      ],
      "stateMutability": "pure",
      "type": "function"
    }
  ],
  "bytecode": {
    "object": "0x61025061003a600b82828239805160001a60731461002d57634e487b7160e01b600052600060045260246000fd5b30600052607381538281f3fe73000000000000000000000000000000000000000030146080604052600436106100355760003560e01c80639847683f1461003a575b600080fd5b61004d6100483660046101eb565b610072565b6040516fffffffffffffffffffffffffffffffff909116815260200160405180910390f35b60008160000361008457506000919050565b816001600160801b821061009d5760809190911c9060401b5b6801000000000000000082106100b85760409190911c9060201b5b64010000000082106100cf5760209190911c9060101b5b6201000082106100e45760109190911c9060081b5b61010082106100f85760089190911c9060041b5b6010821061010b5760049190911c9060021b5b600882106101175760011b5b600181858161012857610128610204565b048201901c9050600181858161014057610140610204565b048201901c9050600181858161015857610158610204565b048201901c9050600181858161017057610170610204565b048201901c9050600181858161018857610188610204565b048201901c905060018185816101a0576101a0610204565b048201901c905060018185816101b8576101b8610204565b048201901c905060008185816101d0576101d0610204565b0490508082106101e057806101e2565b815b95945050505050565b6000602082840312156101fd57600080fd5b5035919050565b634e487b7160e01b600052601260045260246000fdfea2646970667358221220f62762a2ebe7914b76de6a8d899ff3b1c97a7b73dacda1d181422a10d362fea364736f6c634300080d0033",
    "linkReferences": {}
  }
}